:020000040800F2
:10000000C8750020B102000811750008A767000834
:10001000D174000891120008DD950008000000006E
:10002000000000000000000000000000F1010008D6
:10003000191D0008000000004D020008F9800008AA
:10004000CB020008CB020008CB020008CB0200085C
:10005000CB020008CB020008CB020008CB0200084C
:10006000CB020008CB020008CB020008211C0008CC
:10007000311C0008411C0008511C0008611C0008CC
:10008000CB020008CB02000879090008CB02000867
:10009000CB020008211D0008CB020008CB0200089B
:1000A000AD810008DD810008C5810008CB02000891
:1000B000F5810008CB020008CB020008CB02000843
:1000C000CB020008CB020008CB020008CB020008DC
:1000D000CB020008AD940008C1940008D594000834
:1000E000CB020008CB020008CB020008CB020008BC
:1000F00005820008CB020008CB020008CB020008F2
:10010000CB020008CB020008CB020008CB0200089B
:10011000CB020008CB020008CB020008CB0200088B
:10012000CB020008CB020008CB020008CB0200087B
:10013000CB020008CB020008CB020008CB0200086B
:10014000CB020008CB020008CB0200080000000030
:10015000000000000000000000000000000000009F
:10016000000000000000000000000000CB020008BA
:10017000CB020008CB020008CB020008CB0200082B
:10018000CB020008CB020008CB020008CB0200081B
:10019000CB02000800000000CB020008CB020008E0
:1001A000CB020008CB020008CB020008CB020008FB
:1001B000CB020008CB020008CB020008CB020008EB
:1001C000CB020008CB020008CB020008CB020008DB
:1001D000CB020008CB020008DFF810D000F02EFBA5
:1001E00000480047279F0008AFF30080C875002033
:1001F0002C4B19680868B0E8F04F80F30988BFF30A
:100200006F8F4FF0000080F31188704700000000EE
:1002100008480068006880F308884FF0000080F309
:10022000148862B661B6BFF34F8FBFF36F8F00DFE4
:1002300000BF00BF08ED00E0DFF80C00016841F4EA
:1002400070010160704700BF88ED00E0EFF30980A6
:10025000BFF36F8F134B1A681EF0100F08BF20ED0D
:10026000108A20E9F04F106009B44FF0500080F37D
:100270001188BFF34F8FBFF36F8F0AF003FB4FF06E
:10028000000080F3118809BC19680868B0E8F04FD5
:100290001EF0100F08BFB0EC108A80F30988BFF37E
:1002A0006F8F70473C000020EFF30580704700001F
:1002B0000648804706480047FEE7FEE7FEE7FEE700
:1002C000FEE7FEE7FEE7FEE7FEE7FEE799810008AE
:1002D000D90100082DE9F05F0546002092469B46B3
:1002E00088460646814640241BE02846414647464C
:1002F000224600F076F953465A46C01A914110D36F
:1003000011461846224600F05DF92D1A67EB0108E8
:100310004F4622460120002100F054F917EB000956
:100320004E41201EA4F10104DFDC484631462A4636
:100330004346BDE8F09F40EA01039B0703D009E074
:1003400008C9121F08C0042AFAD203E011F8013BC1
:1003500000F8013B521EF9D27047D2B201E000F81A
:10036000012B491EFBD270470022F6E710B5134659
:100370000A4604461946FFF7F0FF204610BD2DE956
:10038000FE4F81EA030404F0004421F00041009490
:100390004FF0000B23F0004350EA01045ED052EA14
:1003A00003045BD0C3F30A54C1F30A552C44A4F2EE
:1003B000F3340194A0FB0254C1F3130141F4801102
:1003C000C3F3130343F4801301FB024400FB034E09
:1003D000840A970A44EA815447EA8357A4FB0768D2
:1003E00002958D0A05FB07854FEA932C04FB0C54FC
:1003F0002705029D4FEA065847EA1637B5EB080570
:100400006EEB070C870E920E47EA811742EA8312C1
:10041000A7FB0201B6EB0B0164EB00042B0D43EAD2
:100420000C335E1844EB1C50DA465146E7FB0201E0
:10043000C5F313044FEA0B3343EA14534FEA043273
:10044000019C43EA0603A4F10C040294009CCDE94C
:1004500000B400F0E5F803B0BDE8F08F00200146DD
:10046000F9E72DE9F04D81EA030404F0004B21F097
:10047000004514464FF0000A23F0004150EA0502FF
:1004800020D054EA01021DD0C5F30A570246C5F335
:100490001303C1F31300C1F30A5640F4801543F46B
:1004A0008013A7EB0608101BD64608F2FD3873EB45
:1004B000050002D308F1010801E092185B41B8F190
:1004C000000F03DA00200146BDE8F08D00204FF454
:1004D0008011064684460EE0171B73EB050705D313
:1004E000121B63EB050306434CEA010C49084FEA73
:1004F000300092185B4150EA0107EDD152EA030047
:1005000012D082EA040083EA0501084305D0101BDB
:10051000AB4106D20122002306E000224FF0004347
:1005200002E06FF0010253101AEB06004CEB085189
:1005300010EB0A0041EB0B01BDE8F04D00F061B893
:1005400000F0004230F000400AD0C10D01F56071AA
:10055000C0F3160042EA0151C20840071143704738
:10056000002001467047000030B5041E71F1000400
:1005700004DB4FF00044404264EB0101141E73F1B0
:10058000000405DB1C464FF00043524263EB0403BA
:10059000994208BF904230BD30B50B46014600205D
:1005A0002022012409E021FA02F59D4205D303FA35
:1005B00002F5491B04FA02F52844151EA2F10102B6
:1005C000F1DC30BD202A04DB203A00FA02F10020E1
:1005D00070479140C2F1200320FA03F31943904081
:1005E0007047202A04DB203A21FA02F000217047EC
:1005F00021FA02F3D040C2F120029140084319468B
:10060000704710B5141E73F1000408DA401C41F164
:10061000000192185B411A4301D120F0010010BD86
:100620002DE9F04D92469B4611B1B1FA81F202E0FC
:10063000B0FA80F220329046FFF7C4FF04460F461E
:1006400040EA0A0041EA0B0153465A46084313D0D8
:10065000114653EA010019D0C8F140025046FFF795
:10066000C0FF05460E46504659464246FFF7AAFFD0
:10067000084305D0012004E020463946BDE8F08D4E
:100680000020054346EAE0762C4337430A98630589
:10069000E40AA0EB08000022FD0A44EA47540A30AD
:1006A00002D500200146E9E7010510196941DDE99D
:1006B000084500196941BDE8F04DA2E72DE9FE4F5C
:1006C000804681EA0300C00F0C46009021F00041F3
:1006D00023F00045B8EB0200A94105D2404621466F
:1006E00090461C460B46024623F00040104347D07C
:1006F000270DC7F30A00C3F30A510290401A019074
:1007000040286BDAC3F3130040F4801B0098924634
:1007100020B10023D2EB030A63EB0B0B019859467F
:10072000C0F140025046FFF74DFF06460D465046C9
:100730005946019A00F094F810EB0800614100243A
:1007400087EA115284EAE7731A4340D0009A62B3F1
:10075000019A012A4FEA075215DC001B61EB0201E6
:100760004FF0004202EA0752CDE90042001C41F579
:10077000801132462B46FFF753FF03B0BDE8F08FE0
:1007800040462146F9E7001B61EB0201001C41F5E0
:10079000801300185B412018A2F5001747EB0301F6
:1007A00040EAD570B6196D4111E06D084FEA360682
:1007B00045EAC0754FEA0752001B61EB0201001CBD
:1007C00041F5801149084FEA300000195141324685
:1007D0002B4603B0BDE8F04FFFF713BF009801228E
:1007E00040000023D0EB020263EBE0730098214647
:1007F0004FEAE074B8EB000061EB0401E9E783F035
:1008000000435BE781F0004158E7C1F30A52C1F3AE
:10081000130140F2FF3341F480119A4202DA0020C2
:100820000146704740F233439A42A2F2334202DC5F
:100830005242FFF7D6BEFFF7C5BE0000064C074D7B
:1008400006E0E06840F0010394E8070098471034A0
:10085000AC42F6D3FFF7C4FC3CC300085CC30008FD
:10086000202A06DBCB17203A41FA02F043EAE07374
:1008700006E041FA02F3D040C2F120029140084361
:100880001946704770B58C1810F8015B15F0070316
:1008900001D110F8013B2A1106D110F8012B03E019
:1008A00010F8016B01F8016B5B1EF9D12B0705D421
:1008B0000023521E0DD401F8013BFAE710F8013B6A
:1008C000CB1A921C03E013F8015B01F8015B521E86
:1008D000F9D5A142D8D3002070BD0000DFED080A91
:1008E00060EE200A9FED071AC0EE811AFCEEE10AC5
:1008F00010EE900A81B2FF2900DBFF21C8B27047D9
:1009000000007F430000C84210B500224FF4804130
:10091000054803F001FC012009F03AFB0122910394
:10092000014803F0F9FB10BD0004004838B5044647
:10093000D4ED000AB0EE600AFFF7D0FF8DF800009A
:10094000D4ED010AB0EE600AFFF7C8FF8DF8010090
:100950009DF80000064908809DF8010040F4807071
:10096000488064230222034804F028FE38BD0000BA
:10097000BC0200206005002010B5034801F062FEB3
:10098000024801F05FFE10BD040300207003002048
:1009900070B50546AC6AE06D00F0500098BBE06DA4
:1009A00040F40070E0652068006800F00800A8B11D
:1009B000206806F0ACF810B32068C06800F400505E
:1009C000E8B9E06D20F48070E065E06D00F48050DF
:1009D000A8B9E06D40F00100E06510E02068C06853
:1009E00000F0020058B9E06D20F48070E065E06D21
:1009F00000F4805018B9E06D40F00100E065204639
:100A000001F014FE0CE0FFE7E06D00F0100018B1FB
:100A1000204601F012FE03E0606D416B28468847D6
:100A200070BD70B50546AC6AE06D40F04000E06511
:100A3000206E40F004002066204601F0FEFD70BDEF
:100A400070B50446A56A284601F0F6FD70BD0000A9
:100A500070B50446206806F03CF80646206806F0AB
:100A60003DF898B396BB2068806800F00D0001281F
:100A70000AD1206881681A4A1140891C816000BF30
:100A800003202168086009E0E06D40F01000E06597
:100A9000206E40F001002066012070BD03F042FB93
:100AA000054614E003F03EFB401B02280FD92068E6
:100AB000806800F0010050B1E06D40F01000E0658A
:100AC000206E40F0010020660120E6E705E0206886
:100AD000806800F001000028E4D10020DDE700007C
:100AE000C0FFFF7F70B50446206805F0F7FF0028BF
:100AF00036D1206880681B49084048B1E06D40F05D
:100B00001000E065206E40F001002066012070BDFD
:100B1000206805F0C3FF03F005FB05461AE02068D6
:100B200005F0DCFF10B9206805F0B8FF03F0FAFA11
:100B3000401B02280ED92068006800F0010048B967
:100B4000E06D40F01000E065206E40F0010020668E
:100B50000120DCE72068006800F001000028DED0FA
:100B60000020D4E73F00008010B5044605488442C9
:100B700002D100F0AFFB04E00348844201D107F04A
:100B800015F810BD040300207003002070B5044662
:100B90000D46164632462946204602F01BF970BD26
:100BA00010B57F210B4801F0D5F97F210A4801F0EB
:100BB000D1F9142009F0ECF9052208490548FFF79E
:100BC000E5FF032206490448FFF7E0FF142009F07F
:100BD000DFF910BD0403002070030020C070002066
:100BE000E87000202DE9F04105460C4616461F46E8
:100BF00016480088C0EBC000154941F82050134842
:100C00000088C0EBC00001EB800004710F48008831
:100C1000C0EBC00001EB800046710C490988C1EBB4
:100C2000C1010B4A02EB8101881D13223946FFF7EF
:100C300082FB084800882044064908800348008851
:100C4000401C02490880BDE8F0810000E20200205B
:100C500014610020E002002030B5024611480088EF
:100C6000814201D0002030BD1078A52805D1481E52
:100C7000105C0D4D2D78A84201D00020F3E7881EAE
:100C8000145C0023012002E0155C2B44401C8D1EE7
:100C90008542F9DCDBB2A34201D10120E3E7002069
:100CA000E1E70000E4020020DF0200202DE9F04728
:100CB00005460F46012F59D1012040490870287878
:100CC000FF2842D13E48008800EB8000800000F100
:100CD00008083C4C3C48007820703B480078607025
:100CE00039480078A070FF20E070002619E0C6EBBC
:100CF000C600364901EB8000407906EB8601890089
:100D0000091D6054C6EBC602304B03EB8202911DF5
:100D1000142202FB0642501D1322FFF70CFB701C2D
:100D200086B2274800888642E1DB04EB08002849A8
:100D30000A8820F8042D897881701FFA88F22146EC
:100D40002448006805F0C2FC0CE02878F12803D1A3
:100D500001202149087005E02878F22802D10020FE
:100D60001D49087000201549087024E02878A5283E
:100D700021D139462846FFF76FFFE0B1A946012689
:100D8000002413E0C4EBC400144901EB800090F888
:100D9000048009EB0601C4EBC402104B53F8220097
:100DA0004246FFF7C8FA4644601C84B20C480088EB
:100DB0008442E7DB00BFBDE8F0870000D8020020D6
:100DC000E2020020205F0020DA02002014610020EF
:100DD000DB020020D4020020D90200208C66002013
:100DE000E602002010B515A3032204211748FFF7DF
:100DF000F9FE17A3042211461848FFF7F3FE18A3C3
:100E0000042211461948FFF7EDFE19A304221146EA
:100E10001A48FFF7E7FE1AA3012211461C48FFF704
:100E2000E1FE1C48006808F063FB4FF4FA721A49AF
:100E30001848006808F066FB10BD00006375727208
:100E4000656E745F74696D6500000000E802002043
:100E50006361705F766F6C7461676500B801002034
:100E60006164635F6D6F746F72000000C4010020E5
:100E70006D6F746F725F706F77657200EC010020A8
:100E80004261636B666C7573685F5374617465006F
:100E900028010020D40200202C5D002070B50446FB
:100EA000E16F086808F020FBC0F5FA7085B22946AA
:100EB0000448FFF7FBFE4FF4FA70E16F09684860E1
:100EC00070BD00002C5D00202DE9F041294800781C
:100ED00010B92948007808B9BDE8F08103F022F97B
:100EE00026490968401A052800D8F5E703F01AF9E1
:100EF00023490860234C2448007820702248007859
:100F0000607021480078A0700320E070042500265E
:100F100011E0C6EBC6001D4901EB80000779C6EB66
:100F2000C6020B4653F8221060193A46FFF703FA3F
:100F30003D44701C86B2164800888642E9DB601981
:100F400014490A8802808978817003F0EBF80B4914
:100F500008601148006805F076F800F0010000B163
:100F6000BAE70E48028821460B48006805F0AEFB40
:100F700000BFB1E7D8020020D9020020EC02002017
:100F8000E8020020205F0020DA0200201461002027
:100F9000E2020020DB020020D4020020E002002058
:100FA0001CB50446E1208DF80000114890ED030ABD
:100FB00084ED000A20788DF8010060788DF8020039
:100FC000A0788DF80300E0788DF8040000208DF8FB
:100FD0000500074840788DF8060042208DF807008C
:100FE0004FF400226946D4E9010300F093FF1CBDD1
:100FF000AC0000202DE9F0410446464806782078F0
:101000007721B1EB600F01D0BDE8F08103F08AF8E1
:1010100040494864207800F00100897808433D4940
:1010200008703EB908460078012803D103F07AF829
:101030003849486237480078012804D11EB903F0C6
:1010400071F83449C862607800F001076078C0F335
:101050008000304981F821006078C0F3400081F8B9
:1010600022006078C0F3400081F84100A078C0F30E
:10107000800048B9284890ED000AF3EE040AB4EE67
:10108000E00AF1EE10FA01DB012000E00020214926
:1010900081F84200012F0FD1204890ED000AF2EEB6
:1010A000020AB4EEE00AF1EE10FA05DB9FED1C0A2D
:1010B000084680ED030A04E0B3EE060A154880ED09
:1010C000030A144890ED040ABCEEC00A10EE100AA0
:1010D000C5B2A07800EE100AB8EE400A0D4880EDC7
:1010E000040AD0ED040A00EE105AB8EE400AF4EEFD
:1010F000400AF1EE10FA03D090ED040A80ED130AD5
:10110000E0780449887594ED010A084680ED060AE6
:1011100000BF79E7AC000020B4010020B801002036
:101120000000DC4110B52DED028B3E48007801280F
:1011300003D13C4890ED138A14E03B48D0ED000AFF
:10114000F5EEC00AF1EE10FA02DBD0ED000A01E084
:10115000DFED360AB0EE600A3248D0ED130A30EE09
:10116000C08A00BF324890ED000AB4EEC08AF1EEAA
:1011700010FA02DBB0EE480A02E02D4890ED000ABA
:10118000284880ED020A90ED020A2948D0ED000AB5
:10119000B4EEE00AF1EE10FA04D800F07BF8BDECF2
:1011A000028B10BD00F086F81E48D0ED020AB0EEAA
:1011B000600A204806F015FC1F4890ED000A1D4803
:1011C00006F00CFC1D491B4806F07CFB194890ED0D
:1011D000070A1B48D0ED000A30EE200A80ED000A15
:1011E00090ED000AF0EE080AB4EEE00AF1EE10FA13
:1011F00004DDB0EE080A80ED000A0BE0104890ED27
:10120000000AB5EEC00AF1EE10FA03D29FED070A0C
:1012100080ED000A0A4890ED000A00F027FC00BFAC
:10122000BDE70000AC000020EC0100200000000041
:1012300030010020B8590020D80100203C010020D6
:1012400010010020F0EE400AB1EE0A1AF4EEC10AD5
:10125000F1EE10FA03D2B1EE0A1AF0EE410A9FED58
:10126000091AB0EE410A9FED081AF3EE061A00EED5
:10127000E11ADFED061A70EEE11A81EE212AB0EED6
:10128000420A7047000000009A991F449A99993FBA
:1012900000BFFEE710B500224FF40071034802F0D2
:1012A0003BFF0020024981F8500010BD00040048B7
:1012B000AC00002010B501225102044802F02CFFBE
:1012C0000120034981F8500010BD000000040048CF
:1012D000AC00002010B52DED068B00209FE0AE493C
:1012E00051F8201000EE101AB8EE400A9FEDAB1A2C
:1012F000C0EE010A9FEDAA0A20EE800AA94901EB7F
:10130000800181ED000A052190FBF1F201FB120141
:1013100089B9052190FBF1F1A34A02EB8101A14AB1
:1013200002EB800292ED000AF2EE060A20EE200A9D
:1013300081ED000A72E0052190FBF1F201FB120140
:10134000012911D1052190FBF1F1984A02EB8101AD
:10135000944A02EB800292ED000AF2EE060A20EEB9
:10136000200A81ED000A59E0052190FBF1F201FB12
:101370001201022915D1052190FBF1F18C4A02EBF3
:101380008101884A02EB800292ED000ADFED890AB2
:1013900030EE600AF2EE040A20EE200A81ED000A27
:1013A0003CE0052190FBF1F201FB1201032915D16C
:1013B000052190FBF1F1804A02EB8101794A02EBB1
:1013C000800292ED000ADFED7B0A30EE600AF2EE59
:1013D000040A20EE200A81ED000A1FE0052190FB9F
:1013E000F1F201FB1201042918D16E4901EB8001D1
:1013F00091ED000ADFED710A30EE600ADFED700A50
:1014000080EE201AB3EE0E0A31EE000A052190FBA1
:10141000F1F16C4A02EB810181ED000A401C0528C4
:10142000FFF65DAF9FED688ADFED678A9FED669AF4
:10143000DFED659A9FED64AA00202DE05B4901EB8A
:10144000800191ED000A30EE280AF0EE408A5649FC
:1014500001EB800191ED000A30EE090AB0EE409AEE
:10146000554901EB800191ED000A30EE290AF0EEBA
:10147000409A4F4901EB800191ED000A30EE0A0AD3
:10148000B0EE40AA4F4901EB800191ED000A30EE29
:10149000080AB0EE408A401C0128CFDBB7EE000AF4
:1014A000C8EE000A4948C0ED000AB7EE000AC9EECE
:1014B000000AF0EE60AAB0EE6A0A454808F01AFD8C
:1014C000444880ED000AB7EE000AC8EE800AF0EE4C
:1014D00060AAB0EE6A0A404808F00CFD3F4880ED73
:1014E000000AB7EE000AC9EE800A3D4890ED000AF6
:1014F00030EE800AF0EE40AA3A4808F0FBFC3A4889
:1015000080ED000A394890ED000A3748D0ED000A16
:1015100020EE200A364880ED000AF7EE000A8AEE37
:10152000200A3448D0ED000A30EE200AF0EE40AA3E
:10153000314808F0DFFC314880ED000A90ED000AE8
:101540002F4880ED000A90ED000AF7EE000AB4EE95
:10155000E00AF1EE10FA04DB02F0E4FD2949086329
:1015600016E0274890ED000AF6EE000AB4EEE00A15
:10157000F1EE10FA0CD890ED000ADFED230AB4EE7C
:10158000E00AF1EE10FA03DB02F0CCFD1D494863DE
:10159000BDEC068B10BD0000C070002000FF7F472F
:1015A00033335340D4700020B0010020AC01002040
:1015B000A00100206666E63F9C0100205C8F423F50
:1015C0000AD7233BA801002000000000D001002022
:1015D00090020020CC01002084020020C8010020DD
:1015E0001C0200203C020020BC010020B4010020AD
:1015F000D80100202002002060020020D401002039
:10160000C0010020AC0000200AD7233C10B565487B
:1016100090ED000AF3EE070AB4EEE00AF1EE10FADC
:1016200054DB614890ED000A6048D0ED000AB4EE4A
:10163000E00AF1EE10FA12DB5D480078012844D18F
:101640005C480078012804D100F0E2F800F0B8F816
:1016500001E000F0F1F800205549087035E05448E9
:10166000007888B902F05EFD524988620846806AB7
:10167000496A401A642802D301204D49087000F0DD
:101680009FF800F0C5F820E04948007801281CD1F7
:10169000494890ED000A4948D0ED000AB4EEE00A4E
:1016A000F1EE10FA0DD843480078012804D100F07B
:1016B00087F800F0ADF808E000F082F800F0BCF820
:1016C00003E000F07DF800F0A3F810BD364890ED7F
:1016D000000A3648D0ED000AB4EEE00AF1EE10FA46
:1016E0001DDB33480078012859D1324800780128A1
:1016F00002D100F08DF801E000F09EF82D4800784E
:10170000012806D12B484078012802D100F06CF85E
:1017100001E000F055F80020254908703FE024481A
:101720000078C8B902F0FEFC224988620846806A47
:10173000496A401A322832D31E48006B1D49496B52
:10174000401AB0F5167F2AD301201949087000F01D
:1017500037F800F05DF822E01548007801281ED126
:10176000154890ED000A1548D0ED000AB4EEE00AE5
:10177000F1EE10FA0FD800F05FF80E48007801285B
:1017800004D100F031F800F043F808E000F018F858
:1017900000F03EF803E000F013F800F039F800BF65
:1017A00093E70000B8010020D401002014010020BC
:1017B00028010020AC000020C401002018010020F6
:1017C00010B500222021064802F0A6FC012240218B
:1017D000034802F0A1FC00200249087510BD00007A
:1017E00000040048AC00002010B50122202106486A
:1017F00002F092FC00224021034802F08DFC0120FF
:101800000249087510BD000000040048AC0000202B
:1018100010B50122D103064802F07EFC00224FF4ED
:101820008041034802F078FC01200249487510BD50
:1018300000080048AC00002010B500224FF4004121
:10184000054802F069FC01229103034802F064FCA0
:1018500000200249487510BD00080048AC00002077
:1018600010B57C48007800285DD17B4800787A4923
:101870008978084378490870784890ED000ADFEDD0
:10188000780AB4EEE00AF1EE10FA08DBFFF798FFF1
:10189000FFF7BEFF0120704981F8590010BD6E4866
:1018A00090F85900012812D16C4890ED000AF3EE2F
:1018B0000E0AB4EEE00AF1EE10FA08DBFFF780FF43
:1018C000FFF7A6FF0120644981F85900E6E70020F0
:1018D000614981F8590008460078012804D108467A
:1018E00090F82000012803D05B488078012871D14E
:1018F0005C4890ED000AF3EE070AB4EEE00AF1EE60
:1019000010FA17DBFFF784FF534890ED030AF3EE5C
:101910000B0AB4EEE00AF1EE10FA05DB01204E49A5
:101920004870FFF761FF93E000204B494870FFF7D4
:1019300047FF8DE04B4890ED000AF3EE070AB4EE46
:10194000E00AF1EE10FA23D290ED000AF3EE060A57
:10195000B4EEE00AF1EE10FA1ADB3F484078B8B96D
:10196000FFF756FF3C4890ED030AF3EE0B0AB4EE86
:10197000E00AF1EE10FA05DB012037494870FFF765
:1019800033FF65E0002034494870FFF719FF5FE03E
:10199000344890ED000AF3EE070AB4EEE00AF1EEE7
:1019A00010FA18D290ED000AF3EE060AB4EEE00A3F
:1019B000F1EE10FA0FDB2848407801280BD12A48B5
:1019C000FFF7EEFAFFF710FFFFF722FF0120224991
:1019D00048703DE025E0234890ED000AF3EE060A4A
:1019E000B4EEE00AF1EE10FA32D21F48FFF7D8FA4F
:1019F000FFF7FAFE02F096FB04461748406B201AE8
:101A0000142808D81448406B1349096B884202D83F
:101A1000FFF712FF01E0FFF7FBFE01200E494870BF
:101A200016E0104890ED000AF2EE060AB4EEE00A65
:101A3000F1EE10FA08DD084890F8200020B90120E6
:101A4000054981F8200003E0FFF7F6FEFFF7B8FE36
:101A500000BF23E728010020AC000020C4010020C3
:101A600000000042B8010020C802002010B52DED92
:101A7000028BB0EE408AB0EE080AB4EEC08AF1EEF6
:101A800010FA04DBB0EE080AB0EE408A08E0B5EECA
:101A9000C08AF1EE10FA03D89FED050AB0EE408A35
:101AA000B0EE480A00F074F8BDEC028B10BD0000E7
:101AB0000000000010B52DED028BB0EE408AB0EEB4
:101AC000480AFFF7BFFB064880ED010A9FED050AB3
:101AD00080ED000AFEF72AFFBDEC028B10BD00006E
:101AE000C00200200000000010B500224FF40041A9
:101AF000044802F011FB00224FF48041014802F03B
:101B00000BFB10BD0008004810B50022202104483E
:101B100002F002FB00224021014802F0FDFA10BD54
:101B2000000400480020064981F848009FED050A9E
:101B3000084680ED040A90ED040A80ED130A704710
:101B4000AC0000200000344210B500200D49886030
:101B50000D484860002008709FED0C0A084680ED93
:101B6000040A0020C86048700846C36800228168E3
:101B7000054801F02BFB03488168034801F046FB50
:101B800010BD0000007100209C0400200000000037
:101B9000DFED1B0AB4EEE00AF1EE10FA04DBDFED34
:101BA000180AB0EE600A0AE0DFED160AB4EEE00AA9
:101BB000F1EE10FA03D8DFED140AB0EE600A9FEDE3
:101BC000131AC0EE010A9FED121A60EE810AFCEEB4
:101BD000E00A1048C0ED030A80ED040AC0680E490F
:101BE00008600E480068406840F001000B49096831
:101BF00048600120074908700020487088707047CD
:101C00005C8F52400AD7233C00000000333353401E
:101C100000F07F4500710020080800509C0400205F
:101C200010B5024801F0B7FB10BD0000DC03002036
:101C300010B5024801F0AFFB10BD0000F008002015
:101C400010B5024801F0A7FB10BD00003C040020C5
:101C500010B5024801F09FFB10BD000050090020A4
:101C600010B5024801F097FB10BD0000B00900203C
:101C700030B50E4D0468AC4201D20D4901E00C496B
:101C800020310B460478083C1425B4FBF5F2446C73
:101C9000A40803EB84048464054C8034C46402F01B
:101CA0001F050124AC40046530BD0000080402405B
:101CB0000008024001794A1E064B03EB820242658E
:101CC000044A403282654A1E02F01F0301229A40F4
:101CD000C26570470009024030B5D0E913546C600A
:101CE000446D14B1D0E916546C6090F8444004F08F
:101CF0001F050124AC40056C6C6004686360846857
:101D0000102C04D10468A2600468E16003E0046858
:101D1000A1600468E26030BD704772B600BFFEE7A4
:101D200010B5024801F071FE10BD0000B0040020A3
:101D300010B5194901640368D3F8803023F4F8140E
:101D4000838E44EA03430468C4F8803001F17003D1
:101D500043640368D3F8803023F0706490F838301F
:101D600044EA03630468C4F8803001F1B00383647B
:101D700001F5C473C36401F51873036501F51E739F
:101D800043650A4602E000231360121D01F55473F7
:101D90009A42F8D310BD000000A400402DE9F041A4
:101DA000054614461E46D1F804C0BCF1000F0AD106
:101DB000D1F810C0D1F808804CEA080CB1F80080C6
:101DC0004CEA88430BE0D1F810C04CF0804CD1F8BD
:101DD00008804CEA080CD1F800804CEA080391F81E
:101DE0002080D1F81CC04CEA086CD1F818804CEA6D
:101DF000080CD1F814804CEA080CD1F80C804CEA9D
:101E0000080706EBC608D5F854C00CEBC8021360EF
:101E1000121D1760121D002019E000F1030C14F8C8
:101E20000CC04FEA0C6800F1020C14F80CC048EA30
:101E30000C4800F1010C14F80CC048EA0C2C14F802
:101E400000804CEA080CC2F800C0121D001DDFF82B
:101E50001880D1F80CC008EB1C4C9CF800C08445DD
:101E6000DBD8BDE8F0810000ECAD000800E0704771
:101E7000FDE730B5039C0160B1F5006F03D34FF06F
:101E80008045456001E00025456000258560C26011
:101E9000056143618461C561056230BD10B588B0DC
:101EA0000446002002900390022004900120059037
:101EB000800206900020079002A9154801F0C6FC98
:101EC00008B1FFF7D3FF002003460222114600901D
:101ED0000F4801F0EDFC08B1FFF7C8FF0C4802F015
:101EE0000EF808B1FFF7C2FF00220121084801F0F7
:101EF000E7FB08B1FFF7BAFF00224FF400210448C6
:101F000001F0DEFB08B1FFF7B1FF08B010BD000023
:101F1000B0040020F8B506460C4617461D460020C2
:101F200003463A46294600900848FFF7A2FF2422BC
:101F300006490748FEF7FFF922460449304601F0FA
:101F400050FC08B1FFF792FFF8BD00003871002087
:101F500014710020F8B504460D460020009000BF23
:101F600094F85800012801D10220F8BD012084F81E
:101F7000580000BF2046FEF76BFD06468EBBE06DA5
:101F800020F4885040F00200E065206881681B4A18
:101F9000114005F0804242F000421143816000BFD1
:101FA00013E00098401C00901549009888420CD31B
:101FB000E06D20F0020040F01000E06500BF00205E
:101FC00084F8580000BF0120CFE720688168C90F5E
:101FD0000029E6D1E06D20F0020040F00100E0654C
:101FE00004E0FFE7E06D40F01000E06500BF002076
:101FF00084F8580000BF3046B7E70000C0FFFF3F3D
:1020000002DE0400704710B50446204600F016FBBF
:1020100010BD7047704770472DE9F0439BB00446F0
:102020000E464FF00008306800B100BF00BF94F8C2
:102030005800012803D102201BB0BDE8F083012025
:1020400084F8580000BF0020179018902068B0F165
:10205000A04F02D13148009001E00020009000988C
:1020600050B9E06D40F02000E06500BF002084F82A
:10207000580000BF0120DFE7009804F043FD074649
:10208000206804F03FFDD8BBD7BB254D306800B3B6
:1020900094F83800716841EA4030A96821F4604141
:1020A0000843A8604FF0A04004F01DFD81461B4886
:1020B00004F019FD49EA0009B9F1000F27D1B16810
:1020C00030680843A96840F61F7291430843A8602E
:1020D0001DE0A86820F46040A8604FF0A04004F024
:1020E00002FD81460D4804F0FEFC49EA0009B9F101
:1020F000000F0CD1A86840F61F718843A86006E065
:10210000FFE7E06D40F02000E0654FF0010800BF00
:10211000002084F8580000BF40468DE700010050C1
:10212000000300502DE9F84F05460C464FF0000A19
:1021300000200090F749E068884200D000E000BF2E
:1021400000BF95F85800012802D10220BDE8F88FA1
:10215000012085F8580000BF286804F0CEFC002854
:102160007DD12968D4E9002001F1300CC0F3012BA6
:102170000CEB8B03D3F800C000F01F0E4FF01F0BC9
:102180000BFA0EFB2CEA0B0C00F01F0BC2F3846E53
:102190000EFA0BFE4CEA0E0CC3F800C000BF286814
:1021A00004F0ABFC8146286804F08EFC8046B9F14F
:1021B000000F64D1B8F1000FFBD1A068B0F1004F5F
:1021C0000AD121680022286804F0B2FC4FF00041D7
:1021D000286804F0D2FC08E0A2682168286804F0AE
:1021E000A7FC0021286804F0C8FC60692968C96858
:1021F000C1F3C101490000FA01F7206904283FD06A
:1022000028682268216900F1600C0CEB8103D3F887
:1022100000C0DFF804B30CEA0B0C02F0F84B4BF0F3
:10222000004B4BEA070B4CEA0B0CC3F800C000BF95
:102230002868A269216900F1600C0CEB8103D3F8D6
:1022400000C02CF0807C4CEA020CC3F800C000BF38
:102250002868227F2169012A02D1520601E0C5E1E6
:102260000022134600F1600C0CEB8102D2F800C092
:102270002CF0007C4CEA030CC2F800C000BFA7E0C1
:102280000021286804F017FCC0F3120030B90021C7
:10229000286804F010FCC0F3846007E0002128687F
:1022A00004F009FC90FAA0F0B0FA80F02168C1F3C4
:1022B000120119B92168C1F3846104E0216891FA1F
:1022C000A1F1B1FA81F1884204D1002211462868B7
:1022D00004F048FC0121286804F0EDFBC0F3120073
:1022E00030B90121286804F0E6FBC0F3846007E000
:1022F0000121286804F0DFFB90FAA0F0B0FA80F02A
:102300002168C1F3120119B92168C1F3846104E0A5
:10231000216891FAA1F1B1FA81F1884204D1002239
:102320000121286804F01EFC0221286804F0C3FB88
:10233000C0F3120030B90221286804F0BCFBC0F3DE
:10234000846007E00221286804F0B5FB90FAA0F051
:10235000B0FA80F02168C1F3120119B92168C1F304
:10236000846104E0216891FAA1F1B1FA81F1884217
:1023700004D100220221286804F0F4FB032128681C
:1023800004F099FBC0F3120030B90321286804F06F
:1023900092FBC0F3846007E00321286804F08BFB04
:1023A00090FAA0F0B0FA80F02168C1F3120119B9D7
:1023B0002168C1F3846104E0216891FAA1F1B1FAC6
:1023C00081F1884204D100220321286804F0CAFB6D
:1023D000286804F083FB002874D12868E26821682B
:1023E0004C4B9A4208D1D0F8B030C1F3120C43EAFA
:1023F0000C03C0F8B03007E0D0F8B030C1F3120CD5
:1024000023EA0C03C0F8B03000BF4249E0688842BC
:1024100058D12368C3F312031BB92368C3F3846341
:1024200004E0236893FAA3F3B3FA83F35B1C03F08D
:102430001F03092B3ED82368C3F312031BB923687B
:10244000C3F3846304E0236893FAA3F3B3FA83F33A
:102450005B1C03F01F034FF0010C0CFA03FC236814
:10246000C3F312031BB92368C3F3846304E0236836
:1024700093FAA3F3B3FA83F35B1C03F01F034CEA54
:10248000836C2368C3F312031BB92368C3F384630B
:1024900004E0236893FAA3F3B3FA83F35B1C03F01D
:1024A0001F0303EB43034FF0000B4BEA03534CEACB
:1024B000030344E02368C3F3120323B92368C3F37F
:1024C000846305E040E0236893FAA3F3B3FA83F34F
:1024D0005B1C03F01F034FF0010C0CFA03FC236894
:1024E000C3F312031BB92368C3F3846304E02368B6
:1024F00093FAA3F3B3FA83F35B1C03F01F034CEAD4
:10250000836C2368C3F3120343B92368C3F3846362
:1025100009E0000000007F4000F0FF03236893FA09
:10252000A3F3B3FA83F35B1C03F01F030A3B03EB33
:1025300043034FF0007B4BEA03534CEA0303194675
:10254000A268286804F0F4FA2F492068084050B3C4
:1025500000BF2E48806800F0E07600BF2C4920685C
:10256000884203D02B49206888421DD106F4000020
:10257000D0B92868B0F1A04F3ED146F400012348FD
:1025800004F0EAFA244800682449B0FBF1F0401C4A
:1025900000EB40008000009002E00098401E009098
:1025A00000980028F9D127E01D49206888420CD105
:1025B00006F0807048B91B49286888421CD046F054
:1025C0008071124804F0C8FA16E017492068884262
:1025D00012D106F4800078B91249286888420BD0DD
:1025E00046F48001094804F0B7FA05E0E86D40F0D0
:1025F0002000E8654FF0010A00BF002085F8580070
:1026000000BF5046A2E50000000008800003005013
:10261000000021C31000C09038000020400D0300CE
:10262000000052C700010050000084CB10B50446E2
:102630002046FEF799FA10BD7047704701460868BA
:10264000006C70472DE9F84F044600200090206888
:10265000056820684668C54804F028FA074605F072
:102660000200022811D106F0020002280DD1E06D0F
:1026700000F0100018B9E06D40F40060E0652046FD
:10268000FFF7C0FC02202168086005F00400042860
:1026900003D106F00400042807D005F0080008283C
:1026A0005FD106F0080008285BD1E06D00F0100053
:1026B00018B9E06D40F40070E065206804F027FA76
:1026C000002848D0AA492068884202D14FF0A04093
:1026D00000E020682168884204D01FB1052F01D096
:1026E000092F03D12068D0F80C800AE0A0492068A7
:1026F000884202D14FF0A04000E020688346DBF81A
:102700000C8008F40050B0F5005F24D02068006809
:1027100000F0080008281ED1206804F0EEF990B9F6
:102720002068406820F00C0021684860E06D20F4CB
:102730008070E065E06D00F4805060B9E06D40F0BD
:102740000100E06507E0E06D40F01000E065206EFC
:1027500040F0010020662046FFF768FF0C2021684A
:10276000086005F02000202803D106F02000202872
:1027700007D005F04000402872D106F04000402804
:102780006ED1E06D00F0100018B9E06D40F400501B
:10279000E0652068C16C01F4C07109B9012100E055
:1027A00000218A4600BF206804F0B1F981467049D3
:1027B0002068884202D14FF0A04000E020682168E4
:1027C000884204D01FB1062F01D0072F03D1206803
:1027D000D0F80C800AE066492068884202D14FF0A8
:1027E000A04000E020688346DBF80C80BAF1000FBF
:1027F00030D008F0007028B1B9F1000F2AD008F4E9
:10280000005038BB2068006800F04000402821D10B
:1028100008F40010F0B9206804F056F990B9206867
:10282000406820F0600021684860E06D20F480502E
:10283000E065E06D00F4807060B9E06D40F001008B
:10284000E06507E0E06D40F01000E065206E40F0CC
:10285000010020662046FFF7D6FB60202168086053
:1028600005F0800080280DD106F08000802809D175
:10287000E06D40F48030E065204600F0AFF9802044
:102880002168086005F48070B0F5807F0FD106F4F0
:102890008070B0F5807F0AD1E06D40F40030E065D3
:1028A0002046FFF7B7FB4FF480702168086005F4FD
:1028B0000070B0F5007F0FD106F40070B0F5007F16
:1028C0000AD1E06D40F48020E0652046FFF7A3FBCD
:1028D0004FF400702168086005F0100010282AD11C
:1028E00006F01000102826D1E06B10B901200090EE
:1028F00010E047B100BF1D48806800F4604048B157
:102900000120009006E02068C06800F0010008B1D6
:1029100001200090009801280AD1E06D40F4806009
:10292000E065206E40F0020020662046FFF785FE3D
:1029300010202168086005F48060B0F5806F13D125
:1029400006F48060B0F5806F0ED1E06D40F48040F9
:10295000E065206E40F0080020664FF4806021683A
:1029600008602046FFF755FBBDE8F88F00030050D4
:10297000000100502DE9F84F04464FF000090020F7
:10298000009014B90120BDE8F88F606920B194F877
:102990002400012800D100BFE06D30B9204600F0CE
:1029A0001FF90020206684F8580020688168C1F370
:1029B000407131B120688168814A1140816000BF57
:1029C00000BF206804F094F8B0B9206881687D4A9F
:1029D000114041F08051816000BF7B4800687B4915
:1029E000B0FBF1F0401C4000009002E00098401E57
:1029F000009000980028F9D1206804F079F848B9CF
:102A0000E06D40F01000E065206E40F001002066AF
:102A10004FF00109206804F070F80646E06D00F000
:102A2000100000287CD1002EFCD1E06D20F48070D5
:102A300040F00200E065206804F050F8B0B94FF0B3
:102A4000A04004F04BF88246614804F047F84AEA97
:102A5000000ABAF1000F09D160685E49896821F463
:102A60007C1101435B4A916000BF00BF607FE16B56
:102A700041EA4030E1680843A168084394F8241013
:102A800040EA014594F82400012803D1208D401E1E
:102A900045EA4045E06A28B1A08D00F47870216BCA
:102AA000084305432068C0684B4908402843216813
:102AB000C8602068006920F04060616B08432168AD
:102AC0000861206804F019F88046206803F0FCFFD4
:102AD0000746B8F1000F50D1F7BB207F002141EA33
:102AE000803194F8380041EA40052068C06844F21B
:102AF0000201884328432168C860206988B12068A2
:102B0000006940F48030216808612068D0F8C00076
:102B10006FF30D00216908432168C1F8C0000EE081
:102B200045E02068006920F4803021680861206851
:102B3000D0F8C0006FF30D002168C1F8C00094F810
:102B40004000012813D1606C40F00101A06C0843E3
:102B5000E16C0843216D00E00FE00843216809693A
:102B600040F2FC72914308432168086105E0206847
:102B7000006920F00100216808616069012809D11D
:102B80002068006B20F00F00216A491E084321686D
:102B9000086305E02068006B20F00F0021680863DF
:102BA000E06D20F0020040F00100E06505E0E06D1E
:102BB00040F01000E0654FF001094846E3E60000F0
:102BC000C0FFFF5FC0FFFF7F38000020400D030003
:102BD00000010050000300500740F0FF7047000064
:102BE00010B598B00446142113A8FDF7BDFB44218D
:102BF00002A8FDF7B9FB2068B0F1A04F76D14FF4E1
:102C0000004002908003119002A801F007FE08B175
:102C1000FFF783F868480068401C67490860084669
:102C2000006801280DD100BF6448C06C40F400501A
:102C30006249C8640846C06C00F40050019000BFAF
:102C400000BF00BF5D48C06C40F001005B49C86434
:102C50000846C06C00F00100019000BF00BF00BF3B
:102C60000846C06C40F00200C8640846C06C00F022
:102C70000200019000BF00BF0320139014900020B9
:102C8000159013A94FF0904001F056F903201390CE
:102C900014900020159013A9494801F04DF94948B6
:102CA0004949086005204860002147488160C160AB
:102CB0008021016189004161890081612021C16118
:102CC0000902016200F0E6FB08B1FFF726F800BF39
:102CD0003D486065846200BF00220521122001F09A
:102CE000B5FC122001F09EFC64E0FFE73749206844
:102CF00088425FD1C00102908003119002A801F0C8
:102D00008DFD08B1FFF709F82B480068401C2A49DF
:102D100008600846006801280DD100BF2748C06C34
:102D200040F400502549C8640846C06C00F40050C7
:102D3000019000BF00BF00BF2048C06C40F0010000
:102D40001E49C8640846C06C00F00100019000BF35
:102D500000BFE0201390032014900020159013A9C9
:102D60004FF0904001F0E8F8164828301849086004
:102D700024204860002116488160C16080210161E3
:102D800089004161890081612021C16109020162DC
:102D900000F080FB08B1FEF7C0FF00BF0C48606583
:102DA000846200BF00220521122001F04FFC122096
:102DB00001F038FC18B010BD2800002000100240BF
:102DC0000004004808000240DC030020000100501D
:102DD0003C0400202DE9F04104460F4690463D4852
:102DE00003F064FE0646206803F087FE00286DD1DC
:102DF00000BF94F85800012802D10220BDE8F081FC
:102E0000012084F8580000BF1EB1052E01D0092E04
:102E100056D12046FDF766FE0546002D4BD1E06DEC
:102E200040F60161884340F48070E0652A492068DB
:102E3000884202D14FF0A04000E02068216888421B
:102E400000D01EB9E06D20F48010E065E06D00F464
:102E5000805020B1206E20F00600206601E00020A6
:102E600020661E48616DC8621D48616D08631D487B
:102E7000616D48631C202168086000BF002084F851
:102E8000580000BF2068406840F01000216848608A
:102E90002068C06840F001002168C860226802F123
:102EA000400143463A46606D00F095FB05462068B8
:102EB00003F036FE0BE000BF002084F8580006E067
:102EC000012500BF002084F8580000E002252846B4
:102ED00094E7000000030050000100509109000831
:102EE000410A0008230A00082DE9F05F04460D4658
:102EF0001646E869012800D100BFA868042800D15F
:102F000000BF00BF6079012802D10220BDE8F09F18
:102F10000120607100BF02202071A868042855D1EB
:102F200001F000F98246D6B90CE001F0FBF8A0EB05
:102F30000A00012806D9206940F00800206103201A
:102F40002071E3E72068406B00F400400028ECD1DA
:102F5000012000F0A1FB686A2168086419E00CE018
:102F600001F0E0F8A0EB0A00012806D9206940F042
:102F70000800206103202071C8E72068406B00F042
:102F800000400028ECD1012000F086FB686A21682F
:102F900048642068806C06F0100240F2FF319140D6
:102FA000884306F01002A96A9140084321688864AA
:102FB0002068C06C06F01002FF219140884306F0A3
:102FC0001002E96A914008432168C864E869012851
:102FD0000FD12068876B06F010011F2088408743BF
:102FE000D5F8208006F0100008FA00F007432068AA
:102FF00087632068C76B06F010010720884087436D
:10300000A869012802D14FF000090CE0A869022844
:1030100002D14FF0010906E0686910B94FF00109CB
:1030200001E04FF000096969A868084340EA09080F
:1030300006F010014FF480708840874328790128FA
:1030400001D1000200E0002040EA080806F010016B
:103050004FF40070884087436879012801D140020D
:1030600000E0002040EA080827F4404728680228CA
:103070000FD101F0BFFE83462C498B4502D947F49E
:10308000004708E02A48834502D947F4804702E018
:1030900001E02868074306F0100108FA01F0074331
:1030A0002068C7632068006806F010024FF4804172
:1030B00091408843216808602068076806F0100185
:1030C00040F6FE7088408743D5F80C8006F010016A
:1030D00008FA01F00743206807602068006806F0DE
:1030E0001002C0219140884321680860287BC0F30A
:1030F0008308287CC0F3830048EA00282068006E1B
:1031000006F0100240F60F719140884306F010015E
:1031100008FA01F10843216808660120207100BF08
:103120000020607100BF00BFF0E600000068890960
:1031300000B4C40410B504460CB9012010BD2079B8
:1031400020B900206071204600F008F802202071AC
:1031500000202061012020710020EFE710B586B02B
:103160000446142101A8FDF7FFF81649206888429B
:1031700025D100BF1448C06C40F480301249C864A7
:103180000846C06C00F48030009000BF00BF00BF54
:103190000846C06C40F00100C8640846C06C00F0EE
:1031A0000100009000BF00BF10200190032002909A
:1031B0000020039001A94FF0904000F0BDFE06B042
:1031C00010BD0000000800500010024078B5044611
:1031D000002000902068C06B01F010064FF480754D
:1031E000B540284000B900BF2068009029B902F11D
:1031F0000800009D2844009004E002F11400009DA6
:103200002844009000980360002078BD70B5044603
:103210000D4600BF6079012801D1022070BD012058
:10322000607100BF022020712068006805F0100264
:1032300001219140084321680860012000F02CFA28
:1032400065B92068006800F03E00022816D12068A9
:10325000406840F00100216848600FE02068006885
:1032600000F4781105F0100202209040814205D14F
:103270002068406840F00200216848600120207109
:1032800000BF0020607100BF00BFC7E701460020FB
:1032900091F82520022A03D00422CA63012027E0E6
:1032A0000A68126822F00E020B681A608A6C1268B3
:1032B00022F480728B6C1A600A68126822F0010294
:1032C0000B681A6091F8442002F01F0301229A4013
:1032D0000B6C5A60D1E913325A604A6D42B14A6DA3
:1032E000126822F480724B6D1A60D1E916325A606E
:1032F000012281F8252000BF002281F8242000BF90
:10330000704770B50446002594F8250002280BD0BC
:103310000420E063012084F8250000BF002084F829
:10332000240000BF012534E02068006820F00E0072
:10333000216808602068006820F0010021680860AA
:10334000A06C006820F48070A16C086094F84400C0
:1033500000F01F0101208840216C4860D4E913105F
:103360004860606D40B1606D006820F48070616DF0
:103370000860D4E916104860012084F8250000BFD9
:10338000002084F8240000BFA06B10B12046A16B80
:103390008847284670BD70B50446206C05682068D3
:1033A000066894F8440000F01F010420884028407B
:1033B000E0B106F00400C8B12068006800F0200009
:1033C00028B92068006820F004002168086094F89B
:1033D000440000F01F0104208840216C4860206BED
:1033E000002856D02046216B884752E094F84400CC
:1033F00000F01F0102208840284018B306F00200A8
:1034000000B32068006800F0200040B92068006820
:1034100020F00A0021680860012084F8250094F853
:10342000440000F01F0102208840216C486000BF6A
:10343000002084F8240000BFE06A50B32046E16A0F
:10344000884726E094F8440000F01F0108208840D7
:103450002840F0B106F00800D8B12068006820F0DC
:103460000E002168086094F8440000F01F0101205C
:103470008840216C48600120E06384F8250000BF8B
:10348000002084F8240000BF606B10B12046616BFF
:10349000884770BD70B504460CB9012070BD2F4936
:1034A000206888420BD22E492068401A1421B0FBB4
:1034B000F1F0800060642A48083820640AE0274957
:1034C0002068401A1421B0FBF1F0800060642348AA
:1034D00008382064022084F825002068056847F633
:1034E000F0708543D4E9020108432169084361690A
:1034F0000843A1690843E1690843216A0843054379
:10350000206805602046FEF7B3FBA068B0F5804F49
:1035100001D1002060602079A16C0860D4E913100B
:103520004860606860B16068042809D82046FEF7EA
:10353000C1FB0020616D0860D4E91610486003E00B
:1035400000206065A065E0650020E063012084F84C
:103550002500002084F8240000BF9FE708040240F3
:10356000080002402DE9F04104460D4616461F466C
:103570004FF0000800BF94F82400012802D1022077
:10358000BDE8F081012084F8240000BF94F82500F4
:10359000012817D1022084F825000020E06320686C
:1035A000006820F00100216808603B463246294649
:1035B0002046FEF791FB2068006840F0010021687A
:1035C000086006E000BF002084F8240000BF4FF030
:1035D00002084046D4E72DE9F04104460D46164660
:1035E0001F464FF0000800BF94F82400012802D1C4
:1035F0000220BDE8F081012084F8240000BF94F887
:10360000250001283FD1022084F825000020E06336
:103610002068006820F00100216808603B463246BF
:1036200029462046FEF758FB206B30B12068006821
:1036300040F00E00216808600BE02068006820F070
:103640000400216808602068006840F00A002168D2
:103650000860A06C006800F4803028B1A06C00689D
:1036600040F48070A16C0860606D28B1606D0068E6
:1036700040F48070616D08602068006840F00100CF
:103680002168086006E000BF002084F8240000BF25
:103690004FF002084046ACE770B5044600F042FD2A
:1036A00006462546681C10B104480068054400BF62
:1036B00000F038FD801BA842FAD370BD3400002012
:1036C00070B50346144693F85C5001F4C07000B125
:1036D00000BF012D01D0022D7DD11868826D01F04F
:1036E000070010B102F0010018B301F0380010B16A
:1036F00002F00200E8B101F4E07010B102F0040041
:10370000B8B101F4F05010B102F0080088B101F432
:10371000604010B102F0100058B101F4403010B117
:1037200002F0200028B101F47C0040B102F040001A
:1037300028B91868C06D40F001001E68F06501F0FE
:10374000070010B102F0010018BB01F0380010B101
:1037500002F00200E8B901F4E07010B102F00400D8
:10376000B8B901F4F05010B102F0080088B901F4C2
:10377000604010B102F0100058B901F4403010B1AF
:1037800002F0200028B901F47C0040B102F04000B2
:1037900028B11868C06D40F002001E68F06501F0A5
:1037A000800030B11868D0F8DC0020431E68C6F8ED
:1037B000DC0001F4807030B11868D0F8E0002043DC
:1037C0001E68C6F8E0001868406D08431E68706502
:1037D000002070BDFFE7186E40F00200186601205F
:1037E000F7E72DE9F04104460E461746706800B928
:1037F00000E000BF94F85C00022821D12068D0F8D6
:10380000C40000F4001030B1206E40F40070206657
:103810000120BDE8F0812068D0F8C400C0F3014564
:103820002B463A4631462046FEF7B8FA0120A8401A
:103830002168C1F8CC000120A840A0650020E8E77D
:10384000206E40F0080020660120E2E7F0B5024655
:1038500092F85C60012E01D0022E23D1086880B955
:10386000087A80070F7B40EAC7600F8A40EA07406A
:103870004F6940EA0704176C486807EB80031C6037
:103880000EE00F7B086940EA47740F7A486940EA06
:103890008775576C486807EBC0031C601B1D1D60D3
:1038A0000020F0BD106E40F0020010660120F8E725
:1038B00070B50446049D94F85C00012810D10801FD
:1038C00040EA820040EA430028432668D6F8806038
:1038D00026F03F0630432668C6F88000002070BD01
:1038E000206E40F0040020660120F8E77047704722
:1038F0002DE9F04304460E469C4694F85C80B8F1EE
:10390000020F79D1402E17D12068D0F8900000F036
:103910000F0030B9206E40F4807020660120BDE8B1
:10392000F0832068D0F89000C0F3012303EBC309B3
:10393000A06C00EBC90115E02068D0F8980000F0F9
:103940000F0028B9206E40F4807020660120E6E761
:103950002068D0F89800C0F3012303EBC309E06CA2
:1039600000EBC901086800F080405060506820B941
:103970000868C0F38A40106003E0086820F06040E7
:103980001060086800F000509060086800F0004087
:103990001061091D088880B2D061086800F47020A9
:1039A000D060086800F480105061086800F40010CE
:1039B00090610868C0F3066010620868C00F50622A
:1039C000091D0F46002503E0785D0CF805006D1C0D
:1039D000DFF83090D06809EB10400078A842F3D8A7
:1039E000402E04D12068C0F8943003E004E0206841
:1039F000C0F89C30002092E7206E40F0080020665E
:103A000001208CE7ECAD000870472DE9F05F04461B
:103A10002068006D00F4E0552068406D0540206886
:103A2000006D00F007062068406D06402068006DBC
:103A300000F038072068406D07402068006D00F4F2
:103A400071082068406D00EA08082068006D00F4E5
:103A500060292068406D00EA09092068006D00F0C7
:103A6000400050B12068406D00F0400028B1402077
:103A7000216808652046FFF7C7FF2068006D00F445
:103A80008070A0B12068406D00F4807078B120682B
:103A9000D0F8D8B02068D0F8E00000EA0B0B4FF463
:103AA0008070216808655946204600F041FA2DB122
:103AB000206805652946204600F03CFA2EB12068B2
:103AC00006653146204600F0EFF92FB12068076502
:103AD0003946204600F012FA2068006D00F40070AC
:103AE00058B12068406D00F4007030B14FF40070A0
:103AF00021680865204600F01EFA2068006D00F07D
:103B0000800098B12068406D00F0800070B120689E
:103B1000D0F8D4A02068D0F8DC0000EA0A0A80209F
:103B2000216808655146204600F003FA2068006DC0
:103B300000F4005058B12068406D00F4005030B1DE
:103B40004FF4005021680865204600F0F0F9206825
:103B5000006D00F4004058B12068406D00F4004052
:103B600030B14FF4004021680865204600F0DEF9CE
:103B70002068006D00F4804060B12068406D00F462
:103B8000804038B14FF4804021680865206E40F0D5
:103B900080002066B9F1000F06D02068C0F8509070
:103BA00049462046FFF7A3FEB8F1000F06D0206873
:103BB000C0F85080206E40EA08002066206E10B1E8
:103BC0002046FFF793FEBDE8F09F000070B5044665
:103BD0000CB9012070BD81492068884200D100BF26
:103BE000A068B0F5407F00D100BF94F85C0028B910
:103BF000002084F85D00204600F0F4F82068806919
:103C000020F010002168886100F08CFA05460DE074
:103C100000F088FA401B0A2808D9206E40F0010005
:103C20002066032084F85C000120D3E720688069C7
:103C300000F008000828EBD02068806940F00100FF
:103C40002168886100F06EFA05460DE000F06AFA1E
:103C5000401B0A2808D9206E40F00100206603208E
:103C600084F85C000120B5E72068806900F001005D
:103C70000028EBD02068806940F00200216888614C
:103C800056492068884202D1554960680860207C06
:103C9000012806D12068806920F0400021688861F1
:103CA00005E02068806940F0400021688861607C00
:103CB000012806D12068806940F48040216888612D
:103CC00005E02068806920F4804021688861A07C3C
:103CD000012806D12068806920F48050216888611D
:103CE00005E02068806940F4805021688861206880
:103CF000806920F44070A1680843216888612068C9
:103D0000806920F0A400216888612068006920F0A3
:103D1000100021680861E068012806D120688069E8
:103D200040F004002168886120E0E068F0B1E068BC
:103D3000022815D02068806940F0800021688861E1
:103D40002068006940F0100021680861E0680328DD
:103D50000CD12068806940F020002168886105E06E
:103D60002068806940F0200021688861207E401E24
:103D70004106E069401E41EA0020216A491E0843CD
:103D8000A18A491E40EA01402168C861A068B0F5D7
:103D9000407F0FD1A06A401EE16A491E40EA01211E
:103DA000206B401E41EA0011A08C401E41EA0040F9
:103DB0002168C8602068D0F8C000E16B0843216822
:103DC000C1F8C0002046FDF7B3FF0020A0652066C3
:103DD000012084F85C000020FCE600000064004044
:103DE0000065004010B598B00446142113A8FCF7F4
:103DF000BBFA442102A8FCF7B7FA28492068884298
:103E00004AD18014029040030E9002A800F006FDF3
:103E100008B1FDF782FF00BF2148806D40F00070BF
:103E20001F4988650846806D00F00070019000BF52
:103E300000BF00BF0846C06C40F00100C8640846DF
:103E4000C06C00F00100019000BF00BF4FF4C050F3
:103E50001390022014900020159003201690092042
:103E6000179013A9C00600F067F800BF0D4840681E
:103E700040F480200B49486000BF00BF08464068FE
:103E800040F40020486000BF00220521152000F00A
:103E9000DDFB152000F0C6FB18B010BD006400402B
:103EA000001002400000014070B504460D4605F0C8
:103EB0000100D8B10E492068884217D10D4B0E4A37
:103EC00040212046FFF714FD0B480068982803D1D5
:103ED0000848FDF78FF800E000BF00BF0022012175
:103EE0002046FFF7EDFB08B1FDF7C0FF70BD0000F5
:103EF000006400405C7100209C7100207047014606
:103F000091F85C0001280BD1022081F85C00086860
:103F1000806920F001000A689061002008667047FF
:103F2000086E40F0040008660120F8E7704770470B
:103F3000704770477047704778B502460B460021BE
:103F4000CAE001268E401D6805EA0604002C73D0E5
:103F50001D7905F00305012D04D01D7905F0030539
:103F6000022D13D190684E000325B540A8434E00A2
:103F7000DD68B54028439060506801258D40A84316
:103F80001D79C5F300158D40284350601D7905F05B
:103F90000305032D09D0D0684E000325B540A84382
:103FA0004E009D68B5402843D0601D7905F003059B
:103FB000022D13D1CE0802F1200555F826004D0739
:103FC000EE0E0F25B540A8434E07F60E1D69B5400D
:103FD0002843CE0802F1200545F8260010684E005F
:103FE0000325B540A8431D7905F003054E00B540F3
:103FF000284310605D6805F44035002D6BD000BF8C
:10400000384D2D6E45F00105364E356635462D6E20
:1040100005F00105009500BF00BF4FEAB6358E08D8
:1040200055F826008D072E0F0F25B540A843B2F195
:10403000904F02D100251AE04DE02B4DAA4201D14C
:10404000012514E0294DAA4201D102250FE0284D97
:10405000AA4201D103250AE0264DAA4201D1042536
:1040600005E0254DAA4201D1052500E006258E0771
:10407000360FB5402843214D8E0845F82600204DC7
:104080002868A0435D6805F4801505B120431C4DE8
:1040900028602D1D2868A0435D6805F4001505B152
:1040A0002043174D2D1D2860154D2D1F2868A04356
:1040B0005D6805F4003505B12043114D2D1F2860C2
:1040C0002D1F2868A0435D6805F4803505B12043A5
:1040D0000B4D083D2860491C1D68CD40002D7FF424
:1040E00030AF78BD001002400004004800080048CE
:1040F000000C00480010004800140048080001406F
:104100000804014010B5426921EA020302EA0104F1
:1041100043EA0443836110BD0AB1816100E081621A
:104120007047000001480068704700002C00002024
:10413000024692F8410020282DD100BF92F840009D
:10414000012801D102207047012082F8400000BF01
:10415000242082F841001068006820F001001368F4
:1041600018601068006820F48050136818601068A8
:1041700000680843136818601068006840F0010088
:1041800013681860202082F8410000BF002082F8E8
:10419000400000BFD7E70220D5E710B502460B4626
:1041A00092F8410020282AD100BF92F8400001284F
:1041B00001D1022010BD012082F8400000BF242060
:1041C00082F841001068006820F001001468206047
:1041D0001068016821F4706141EA032110680160F0
:1041E0001068006840F0010014682060202082F808
:1041F000410000BF002082F8400000BFDAE7022043
:10420000D8E7000010B504460CB9012010BD94F8A1
:10421000410028B9002084F84000204600F004F94D
:10422000242084F841002068006820F00100216803
:104230000860606820F0706021680861206880680C
:1042400020F4004021688860E068012805D1A0685A
:1042500040F400402168886004E0A06840F4044015
:1042600021688860E068022802D1800221684860E5
:104270002068406813490843216848602068C06886
:1042800020F400402168C860D4E904010843A16912
:1042900040EA01202168C860D4E907010843216889
:1042A00008602068006840F0010021680860002074
:1042B0006064202084F841000020206384F84200DC
:1042C00000BFA3E7008000022DE9F84304468946B9
:1042D00016461F46DDF8208094F84100202871D151
:1042E00000BF94F84000012802D10220BDE8F88305
:1042F000012084F8400000BFFFF714FF0546192392
:104300000122D1032046009502F024FB08B10120D0
:10431000ECE7212084F84100102084F842000020BE
:104320006064666267856063608DFF280BD9FF203B
:1043300020853B48009094F82820C3024946204637
:1043400002F0ECFA0AE0608D20853548009094F880
:10435000282003034946204602F0E0FA3FE02A46BF
:104360004146204602F050FB08B10120BEE7606ADA
:10437000007821688862606A401C6062608D401E1F
:104380006085208D401E2085608D40B3208D30BB20
:104390004346002280212046009502F0DBFA08B156
:1043A0000120A3E7608DFF280DD9FF202085002084
:1043B000009094F828204FF080734946204602F080
:1043C000ADFA0CE02AE0608D20850020009094F882
:1043D00028204FF000734946204602F09FFA608D76
:1043E0000028BCD12A464146204602F0E2FA08B134
:1043F00001207BE720202168C861206840680949C6
:10440000084021684860202084F84100002084F89A
:10441000420000BF84F8400000BF67E7022065E764
:104420000020008000E800FE10B598B0044614217A
:1044300013A8FBF799FF442102A8FBF795FF2B492E
:104440002068884250D1402002900020089002A8A5
:1044500000F0E4F908B1FDF760FC00BF2448C06C2F
:1044600040F001002249C8640846C06C00F0010019
:10447000019000BF00BF00BF0846C06C40F00200C2
:10448000C8640846C06C00F00200019000BF00BF85
:104490004FF400401390122014900120159000203A
:1044A00016900420179013A94FF09040FFF744FD99
:1044B0008020139012201490012015900020169057
:1044C0000420179013A90B48FFF736FD00BF0848DA
:1044D000806D40F40010064988650846806D00F440
:1044E0000010019000BF00BF18B010BD0054004084
:1044F00000100240000400480348006803490968AE
:1045000008440149086070472C0000203400002056
:1045100010B50024032000F0D7F80F2000F008F8B1
:1045200008B1012401E000F051F8204610BD000060
:10453000F0B587B0044600260027002500BF1E48BE
:10454000006E40F480201C4908660846006E00F4A6
:104550008020009000BF00BF01A902A800F028FC45
:1045600000F060FC06461548B6FBF0F0471E144804
:104570001449086040F2E7311248C16047600021E9
:104580000161816001F087F9054695B90D4801F098
:10459000A5FA05466DB91A2000F044F8102C07D290
:1045A000002221461A2000F051F80748046000E07C
:1045B0000125284607B0F0BD0010024040420F0020
:1045C00000480140100A00203000002008B500BF5C
:1045D0001348006E40F00100114908660846006E5D
:1045E00000F00100009000BF00BF00BF0846806DD2
:1045F00040F0805088650846806D00F08050009043
:1046000000BF00BF00220F21901E00F01FF801F034
:10461000CBF8022001F0D2F800F0F6F808BD000057
:10462000001002400146084600280DDB00BF00BF15
:1046300000F01F0301229A4043099B0003F1E0238D
:10464000C3F8002100BF00BF00BF70472DE9F05F35
:1046500080460D46164604F0D7FF074639462A46DF
:10466000334601F00700C0F1070ABAF1040F02D97E
:104670004FF0040A01E0C0F1070AD14600F1040A34
:10468000BAF1070F02D24FF0000A01E0A0F1030ACD
:10469000D4464FF0010A0AFA09FAAAF1010A0AEA15
:1046A000020A0AFA0CFA4FF0010B0BFA0CFBABF101
:1046B000010B0BEA030B4AEA0B042146404604F0C7
:1046C000ABFFBDE8F09F000000BF00F00702064B03
:1046D00019684FF6FF031940044B0B4343EA0221CC
:1046E000014B196000BF70470CED00E00000FA05B7
:1046F00002468ABB4148006800F4C060B0F5806F94
:104700002BD13E488030006820F480703B4BC3F8CA
:1047100080001846006820F4C06040F40070186003
:104720003748006832235843364BB0FBF3F0411C46
:1047300000E0491E3148406900F48060B0F5806FA8
:1047400001D10029F5D12D48406900F48060B0F511
:10475000806F51D10320704708E0284880300068FE
:1047600020F48070254BC3F8800045E0B2F5007F4F
:104770003AD12248006800F4C060B0F5806F2AD1B9
:104780001E488030006840F480701C4BC3F88000E5
:104790001846006820F4C06040F4007018601848A3
:1047A000006832235843174BB0FBF3F0411C00E084
:1047B000491E1248406900F48060B0F5806F01D155
:1047C0000029F5D10D48406900F48060B0F5806F94
:1047D00012D10320BFE709488030006840F48070A0
:1047E000064BC3F8800007E00448006820F4C0606E
:1047F00040F48060014B18600020ACE7007000407E
:104800003800002040420F000348806840F4804098
:104810000149886070470000007000402DE9F843AE
:1048200004460027B846206800F40020B0F5002FA9
:1048300073D1B946D348806D00F0805078B900BF7D
:10484000D048806D40F08050CE4988650846806D24
:1048500000F08050009000BF00BF4FF00109CA482F
:10486000006840F48070C8490860FFF75BFC0646AA
:1048700006E0FFF757FC801B022801D9032705E05B
:10488000C148006800F480700028F2D000BF002FFB
:1048900046D1BC489030006800F44075CDB1206C22
:1048A000A84216D0B7489030006820F44075B5484B
:1048B000D0F8900040F48030B249C1F8900008462A
:1048C000D0F8900020F48030C1F890000846C0F87D
:1048D000905005F00100A0B1FFF724FC064608E067
:1048E000FFF720FC801B41F28831884201D9032761
:1048F00006E0A4489030006800F002000028EFD0E5
:1049000000BF5FB99F489030006820F44070216C70
:1049100008439C49C1F8900003E00CE0B84600E071
:10492000B846B9F1010F05D19648806D20F080504E
:104930009449886500BF207800F0010048B1914893
:104940008830006820F00300616808438D49C1F891
:104950008800207800F00200022809D189488830B8
:10496000006820F00C00A16808438649C1F888005F
:10497000207800F00400042809D1824888300068BB
:1049800020F03000E16808437E49C1F888002078B3
:1049900000F00800082809D17A488830006820F023
:1049A000C000216908437749C1F88800207800F0E9
:1049B0002000202809D173488830006820F4406026
:1049C000616908436F49C1F88800207800F0400011
:1049D000402809D16B488830006820F44050A16914
:1049E00008436849C1F88800207800F080008028DA
:1049F00009D164488830006820F44040E1690843E8
:104A00006049C1F88800208800F48070B0F5807F8C
:104A100009D15C488830006820F44030216A08439E
:104A20005849C1F88800208800F40070B0F5007F74
:104A300009D154488830006820F44020616A084356
:104A40005049C1F88800208800F48060B0F5806F7C
:104A500013D14C488830006820F44010A16A084304
:104A6000484988310860A06AB0F5801F05D14548E3
:104A7000C06840F480104349C860208800F400609A
:104A8000B0F5006F13D13F488830006820F4400033
:104A9000E16A08433B4988310860E06AB0F5800F5D
:104AA00005D13848C06840F480103649C860208875
:104AB00000F48050B0F5805F13D132488830006830
:104AC00020F04070216B08432E4988310860206B2C
:104AD000B0F1807F05D12B48C06840F4801029498F
:104AE000C860208800F40050B0F5005F13D125485D
:104AF0008830006820F04060616B084321498831AC
:104B00000860606BB0F1006F05D11E48C06840F4CA
:104B100080101C49C860208800F48040B0F5804FA8
:104B200013D118488830006820F04060A16B08431A
:104B3000144988310860A06BB0F1006F05D11148AD
:104B4000C06840F480100F49C860208800F400401D
:104B5000B0F5004F13D10B488830006820F040506A
:104B6000E16B0843074988310860E06BB0F1805F72
:104B700005D10448C06840F480300249C86040460E
:104B8000BDE8F88300100240007000402DE9F041BC
:104B900004460D464FF0000814B90120BDE8F0812D
:104BA0007D48006800F00F00A8420ED27A480068E5
:104BB00020F00F002843784908600846006800F09C
:104BC0000F00A84201D00120E8E7207800F00100A2
:104BD000002864D06068032823D17048006800F082
:104BE000007008B90120D9E703F016F906466C48B1
:104BF000864237D96948806800F0F00030B12078EB
:104C000000F0020002282DD1A06858BB63488068DC
:104C100020F0F00040F08000604988604FF080088C
:104C200020E06068022806D15C48006800F400308B
:104C300040B90120B2E75948006800F4806008B923
:104C40000120ABE700F000F906465548864209D935
:104C50005248806820F0F00040F080004F498860A2
:104C60004FF080084D48806820F0030061680843D9
:104C70004A498860FFF756FA074608E0FFF752FAFC
:104C8000C01B41F28831884201D9032086E743489E
:104C9000806800F00C006168B0EB810FEED12078E5
:104CA00000F00200022820D1207800F0040004283F
:104CB00005D13A48806840F4E0603849886020783F
:104CC00000F00800082807D13448806820F46050BC
:104CD00040F4E060314988603048806820F0F0009E
:104CE000A16808432D49886008E0B8F1800F05D11C
:104CF0002A48806820F0F00028498860264800682B
:104D000000F00F00A84219D92348006820F00F00D6
:104D1000284321490860FFF705FA074608E0FFF736
:104D200001FAC01B41F28831884201D9032035E7DE
:104D30001948006800F00F00A842F0D1207800F078
:104D40000400042807D11548806820F4E060E16879
:104D5000084312498860207800F00800082808D12C
:104D60000E48806820F46050216940EAC1000B4978
:104D7000886000F069F809498968C1F30311094A9C
:104D8000515C01F01F01C8400749086007480068EE
:104D9000FFF7CEFB02E700000020024000100240B7
:104DA00000B4C40424AE0008380000203000002005
:104DB0000F2202600D4A926802F0030242600B4A21
:104DC000926802F0F0028260084A926802F4E0629F
:104DD000C260064A926802F46052D2080261044A34
:104DE000126802F00F020A607047000000100240D3
:104DF0000020024001480068704700003800002091
:104E000000B5FFF7F7FF05498968C1F30221044A9D
:104E1000515C01F01F01C84000BD000000100240BD
:104E200034AE000800B5FFF7E5FF05498968C1F316
:104E3000C221044A515C01F01F01C84000BD0000BE
:104E40000010024034AE000870B5224DAD6805F088
:104E50000C05042D01D120483AE01E4DAD6805F047
:104E60000C05082D01D11D4832E01A4DAD6805F042
:104E70000C050C2D2BD1174DED6805F00304154DD5
:104E8000ED68C5F303156A1C022C0CD0032C09D164
:104E9000124DB5FBF2F50F4EF668C6F3062605FB7C
:104EA00006F10AE000BF0C4DB5FBF2F5094EF668BD
:104EB000C6F3062605FB06F100BF00BF054DED68F1
:104EC000C5F341656D1C6B00B1FBF3F000E0002001
:104ED00070BD0000001002400024F400001BB70069
:104EE0002DE9F843044614B90120BDE8F883207881
:104EF00000F00100002865D0FC48806800F00C0735
:104F0000FA48C06800F003060C2F01D1032E01D02F
:104F1000082F0AD1F548006800F40030002851D06D
:104F2000606800284ED10120DFE700BF6068B0F55F
:104F3000803F06D1ED48006840F48030EB490860BE
:104F40001AE06068B0F5A02F0BD1E848006840F483
:104F50008020E64908600846006840F48030086018
:104F60000AE0E248006820F48030E0490860084622
:104F7000006820F48020086000BF606888B1FFF7F7
:104F8000D1F8054606E0FFF7CDF8401B642801D9AB
:104F90000320AAE7D548006800F400300028F2D0CA
:104FA00010E0FFF7BFF8054606E0FFF7BBF8401B2F
:104FB000642801D9032098E7CC48006800F4003049
:104FC0000028F2D1207800F00200022860D1C74802
:104FD000806800F00C07C548C06800F003060C2F7D
:104FE00001D1022E01D0042F18D1C048006800F46E
:104FF000806018B1E06808B9012076E7BB484068D6
:1050000020F0FE40217C40EA0160B8494860B84881
:105010000068FFF78DFA18B3012066E7E06800B377
:10502000B248006840F48070B0490860FFF77AF831
:10503000054606E0FFF776F8401B022801D9032059
:1050400053E7AA48006800F480600028F2D0A7481F
:10505000406820F0FE40217C40EA0160A34948609E
:1050600016E0A248006820F48070A0490860FFF7AD
:1050700059F8054606E0FFF755F8401B022801D90C
:10508000032032E79948006800F480600028F2D1DC
:10509000207800F00800082836D16069D0B1934824
:1050A0009430006840F001009049C1F89400FFF787
:1050B00039F8054606E0FFF735F8401B022801D90C
:1050C000032012E789489430006800F002000028AD
:1050D000F1D019E085489430006820F00100834940
:1050E000C1F89400FFF71EF8054606E0FFF71AF82E
:1050F000401B022801D90320F7E67C489430006861
:1051000000F002000028F1D1207800F0040004280B
:1051100072D14FF000087548806D012121EA1070AE
:1051200078B100BF7148806D40F080506F4988654C
:105130000846806D00F08050009000BF00BF4FF027
:1051400001086C48006800F48070B0B969480068D4
:1051500040F4807067490860FEF7E4FF054606E00A
:10516000FEF7E0FF401B022801D90320BDE661489D
:10517000006800F480700028F2D000BFA068012809
:1051800008D15A489030006840F001005749C1F8F2
:10519000900021E0A06805280FD1544890300068A5
:1051A00040F004005149C1F890000846D0F8900042
:1051B00040F00100C1F890000EE04C4890300068CB
:1051C00020F001004949C1F890000846D0F890004D
:1051D00020F00400C1F8900000BFA068A8B1FEF75D
:1051E000A1FF054609E0FEF79DFF401B41F2883113
:1051F000884202D9032078E625E03C4890300068D8
:1052000000F002000028EED013E0FEF78BFF054609
:1052100008E0FEF787FF401B41F28831884201D940
:10522000032062E631489030006800F00200002858
:10523000EFD1B8F1010F05D12C48806D20F08050DE
:105240002A49886500BF207800F02000202836D148
:10525000A069D0B125489830006840F0010023498A
:10526000C1F89800FEF75EFF054606E0FEF75AFF1C
:10527000401B022801D9032037E61C4898300068FB
:1052800000F002000028F1D019E0184898300068BA
:1052900020F001001549C1F89800FEF743FF0546CC
:1052A00006E0FEF73FFF401B022801D903201CE661
:1052B0000E489830006800F002000028F1D1E06943
:1052C000002860D00948806800F00C000C287FD0CE
:1052D000E069022858D10548006820F08070034931
:1052E0000860FEF71FFF05460DE0000000100240B9
:1052F0003000002000700040FEF714FF401B022821
:1053000001D90320F1E54D48006800F00070002845
:10531000F2D1D4E90810401E41EA0011A06A41EA26
:105320000021208E0122C2EB500041EA405134207E
:10533000005DC2EB500041EA40612C20005D41EA73
:10534000C0603E49C9683E4A114008433B49C860B5
:105350000846006840F0807008600846C06840F069
:105360008070C860FEF7DEFE054606E0FEF7DAFE56
:10537000401B022801D90320B7E53048006800F03F
:1053800000700028F2D056E02C48006820F08070B1
:105390002A4908600846C06820F00300C860084633
:1053A000C068284908402549C860FEF7BBFE05468D
:1053B00007E00DE0FEF7B6FE401B022801D90320EE
:1053C00093E51E48006800F000700028F2D132E03A
:1053D000E069012800D188E51848C66806F0030195
:1053E000206A814225D106F0F001606A401EB1EBCF
:1053F000001F1ED106F4FE41A06AB1EB002F18D1A8
:1054000006F078412C20005DB1EBC06F11D106F49D
:10541000C001208E0122C2EB5000B1EB405F08D1E9
:1054200006F0C0613420005DC2EB5000B1EB406F6C
:1054300001D0012059E5002057E50000001002408E
:105440000C809F01FFFFEEFE70B504460CB90120F1
:1054500070BD606A38B96068B0F5827F00D105E040
:105460000021E16102E00021216161610021A1626E
:1054700094F85D0028B9002084F85C00204600F014
:1054800061F8022084F85D002068006820F0400088
:1054900021680860E068B0F5E06F01D9002501E0FF
:1054A0004FF48055E068B0F5706F05D0E068B0F556
:1054B000E06F01D00021A162A08800F482702189F0
:1054C00001F404410843217C01F002010843217DDD
:1054D00001F001010843218B01F400710843217F91
:1054E00001F0380108432021095D01F080010843E3
:1054F000218D01F400510843216808600421A0694E
:1055000001EA104094F8241001F01001084394F8C7
:10551000341001F008010843A18901F470610843C7
:1055200005F480510843216848602068C06920F470
:1055300000602168C86100202066012084F85D00B9
:10554000002085E710B586B00446142101A8FAF7BB
:105550000BFF17492068884228D100BF1548806D8D
:1055600040F48040134988650846806D00F480400F
:10557000009000BF00BF00BF0846C06C40F00200B2
:10558000C8640846C06C00F00200009000BF00BF75
:105590004FF43040019002200290002003900490CC
:1055A0000520059001A90448FEF7C6FC06B010BD11
:1055B0000038004000100240000400482DE9F84F78
:1055C0000446884616461D464FF0000A00BF94F870
:1055D0005C00012802D10220BDE8F88F012084F888
:1055E0005C0000BFFEF79EFD0746B14694F85D00E3
:1055F000012802D04FF0020ACBE0B8F1000F00D032
:1056000016B94FF0010AC4E0032084F85D000020C1
:105610002066C4F83880A687E6872064A4F8440092
:10562000A4F846002065E064A068B0F5004F0BD1F7
:105630002068006820F04000216808602068006849
:1056400040F48040216808602068006800F0400055
:10565000402805D02068006840F0400021680860BC
:10566000E068B0F5E06F2FD9606810B1B9F1010FB3
:1056700009D1A06B00882168C860A06B801CA06362
:10568000E08F401EE0871BE02068806800F0020089
:1056900002280AD1A06B00882168C860A06B801C1A
:1056A000A063E08F401EE0870AE0FEF73BFDC01BD1
:1056B000A84201D3681C00B915B94FF0030A68E08D
:1056C000E08F0028E0D14AE0606810B1B9F1010F25
:1056D00017D1E08F01280AD9A06B00882168C86023
:1056E000A06B801CA063E08F801EE08709E0A06BA8
:1056F000007821680873A06B401CA063E08F401EF7
:10570000E08729E02068806800F00200022818D1B4
:10571000E08F01280AD9A06B00882168C860A06BBF
:10572000801CA063E08F801EE08715E0A06B0078EE
:1057300021680873A06B401CA063E08F401EE087C7
:105740000AE0FEF7EFFCC01BA84201D3681C00B9B9
:1057500015B94FF0030A1CE0E08F0028D2D13A4679
:105760002946204602F08CFB08B120202066A06864
:1057700050B900BF002000902068C06800902068E9
:105780008068009000BF00BF206E08B14FF0010A92
:1057900000BF012084F85D0000BF002084F85C0099
:1057A00000BF504618E700000348006B20F00100DE
:1057B0000149086370470000000001400349096B7C
:1057C00021F002010143014A1163704700000140CA
:1057D00070477047704770477047704730B5024652
:1057E0000B4600BF92F83C00012801D1022030BDD9
:1057F000012082F83C0000BF022082F83D001068C2
:105800004168106884681D4D1068A84203D01C4D83
:105810001068A84203D121F4700158680143194867
:1058200001401868014310684160144D1068A84297
:1058300013D01068B0F1804F0FD0134D1068A842FC
:105840000BD0124D1068A84207D00D4D1068A84229
:1058500003D00F4D1068A84205D124F08004986849
:10586000044310688460012082F83D0000BF0020DE
:1058700082F83C0000BF00BFB9E70000002C0140E7
:10588000003401408FFFFFFD00040040000800408D
:1058900000400140704710B504460CB9012010BD0E
:1058A00094F83D0028B9002084F83C00204600F020
:1058B00029F8022084F83D00211D206802F0AAFC8E
:1058C000012084F8480000BF84F83E0001213F20F9
:1058D00001554020015541200155422001554320EA
:1058E000015500BF00BF012084F844004520015548
:1058F000462001554720015500BF012084F83D0096
:105900000020CCE738B504464B492068884226D1B0
:1059100000BF4A48006E40F40060484908660846E7
:10592000006E00F40060009000BF00BF002205215F
:105930001820FEF78BFE1820FEF774FE00220521CA
:105940001920FEF783FE1920FEF76CFE00220F21BE
:105950001A20FEF77BFE1A20FEF764FE6AE020683C
:10596000B0F1804F16D100BF3448806D40F0010087
:10597000324988650846806D00F00100009000BF44
:1059800000BF002205211C20FEF760FE1C20FEF750
:1059900049FE4FE02A492068884216D100BF2748B7
:1059A000006E40F40050254908660846006E00F479
:1059B0000050009000BF00BF002205212C20FEF700
:1059C00045FE2C20FEF72EFE34E01E49206888425A
:1059D00016D100BF1948006E40F4803017490866A0
:1059E0000846006E00F48030009000BF00BF002227
:1059F00005211820FEF72AFE1820FEF713FE19E0F5
:105A000011492068884215D100BF0C48006E40F44F
:105A100000300A4908660846006E00F40030009025
:105A200000BF00BF002205211920FEF70FFE19203C
:105A3000FEF7F8FD38BD0000002C014000100240C8
:105A4000003401400040014000440140014691F80B
:105A50003D00012801D001207047022081F83D005F
:105A6000184B0868984213D00868B0F1804F0FD0E7
:105A7000154B086898420BD0144B0868984207D021
:105A8000134B0868984203D0124B0868984210D113
:105A900008688068104B00EA0302062A0FD0B2F5AE
:105AA000803F0CD00868006840F001000B68186067
:105AB00005E00868006840F001000B6818600020ED
:105AC000CAE70000002C014000040040000800402C
:105AD000003401400040014007000100014691F8F8
